{
  "_format": "hh-sol-artifact-1",
  "contractName": "Staking",
  "sourceName": "contracts/Staking.sol",
  "abi": [
    {
      "inputs": [],
      "stateMutability": "payable",
      "type": "constructor"
    },
    {
      "inputs": [
        {
          "internalType": "uint256",
          "name": "positionId",
          "type": "uint256"
        },
        {
          "internalType": "uint256",
          "name": "newUnlockDate",
          "type": "uint256"
        }
      ],
      "name": "changeUnlockDate",
      "outputs": [],
      "stateMutability": "nonpayable",
      "type": "function"
    },
    {
      "inputs": [
        {
          "internalType": "uint256",
          "name": "positionId",
          "type": "uint256"
        }
      ],
      "name": "closePosition",
      "outputs": [],
      "stateMutability": "nonpayable",
      "type": "function"
    },
    {
      "inputs": [],
      "name": "currentPositionId",
      "outputs": [
        {
          "internalType": "uint256",
          "name": "",
          "type": "uint256"
        }
      ],
      "stateMutability": "view",
      "type": "function"
    },
    {
      "inputs": [
        {
          "internalType": "uint256",
          "name": "numDays",
          "type": "uint256"
        }
      ],
      "name": "getInterestRate",
      "outputs": [
        {
          "internalType": "uint256",
          "name": "",
          "type": "uint256"
        }
      ],
      "stateMutability": "view",
      "type": "function"
    },
    {
      "inputs": [],
      "name": "getLockPeriods",
      "outputs": [
        {
          "internalType": "uint256[]",
          "name": "",
          "type": "uint256[]"
        }
      ],
      "stateMutability": "view",
      "type": "function"
    },
    {
      "inputs": [
        {
          "internalType": "uint256",
          "name": "positionId",
          "type": "uint256"
        }
      ],
      "name": "getPositionById",
      "outputs": [
        {
          "components": [
            {
              "internalType": "uint256",
              "name": "positionId",
              "type": "uint256"
            },
            {
              "internalType": "address",
              "name": "walletAddress",
              "type": "address"
            },
            {
              "internalType": "uint256",
              "name": "createdDate",
              "type": "uint256"
            },
            {
              "internalType": "uint256",
              "name": "unlockDate",
              "type": "uint256"
            },
            {
              "internalType": "uint256",
              "name": "percentInterest",
              "type": "uint256"
            },
            {
              "internalType": "uint256",
              "name": "weiStaked",
              "type": "uint256"
            },
            {
              "internalType": "uint256",
              "name": "weiInterest",
              "type": "uint256"
            },
            {
              "internalType": "bool",
              "name": "open",
              "type": "bool"
            }
          ],
          "internalType": "struct Staking.Position",
          "name": "",
          "type": "tuple"
        }
      ],
      "stateMutability": "view",
      "type": "function"
    },
    {
      "inputs": [
        {
          "internalType": "address",
          "name": "walletAddress",
          "type": "address"
        }
      ],
      "name": "getPositionIdsForAddress",
      "outputs": [
        {
          "internalType": "uint256[]",
          "name": "",
          "type": "uint256[]"
        }
      ],
      "stateMutability": "view",
      "type": "function"
    },
    {
      "inputs": [
        {
          "internalType": "uint256",
          "name": "",
          "type": "uint256"
        }
      ],
      "name": "lockPeriods",
      "outputs": [
        {
          "internalType": "uint256",
          "name": "",
          "type": "uint256"
        }
      ],
      "stateMutability": "view",
      "type": "function"
    },
    {
      "inputs": [
        {
          "internalType": "uint256",
          "name": "numDays",
          "type": "uint256"
        },
        {
          "internalType": "uint256",
          "name": "basisPoints",
          "type": "uint256"
        }
      ],
      "name": "modifyLockPeriods",
      "outputs": [],
      "stateMutability": "nonpayable",
      "type": "function"
    },
    {
      "inputs": [],
      "name": "owner",
      "outputs": [
        {
          "internalType": "address",
          "name": "",
          "type": "address"
        }
      ],
      "stateMutability": "view",
      "type": "function"
    },
    {
      "inputs": [
        {
          "internalType": "uint256",
          "name": "",
          "type": "uint256"
        }
      ],
      "name": "positions",
      "outputs": [
        {
          "internalType": "uint256",
          "name": "positionId",
          "type": "uint256"
        },
        {
          "internalType": "address",
          "name": "walletAddress",
          "type": "address"
        },
        {
          "internalType": "uint256",
          "name": "createdDate",
          "type": "uint256"
        },
        {
          "internalType": "uint256",
          "name": "unlockDate",
          "type": "uint256"
        },
        {
          "internalType": "uint256",
          "name": "percentInterest",
          "type": "uint256"
        },
        {
          "internalType": "uint256",
          "name": "weiStaked",
          "type": "uint256"
        },
        {
          "internalType": "uint256",
          "name": "weiInterest",
          "type": "uint256"
        },
        {
          "internalType": "bool",
          "name": "open",
          "type": "bool"
        }
      ],
      "stateMutability": "view",
      "type": "function"
    },
    {
      "inputs": [
        {
          "internalType": "address",
          "name": "",
          "type": "address"
        },
        {
          "internalType": "uint256",
          "name": "",
          "type": "uint256"
        }
      ],
      "name": "positionsIdsByAddress",
      "outputs": [
        {
          "internalType": "uint256",
          "name": "",
          "type": "uint256"
        }
      ],
      "stateMutability": "view",
      "type": "function"
    },
    {
      "inputs": [
        {
          "internalType": "uint256",
          "name": "numDays",
          "type": "uint256"
        }
      ],
      "name": "stakeEther",
      "outputs": [],
      "stateMutability": "payable",
      "type": "function"
    },
    {
      "inputs": [
        {
          "internalType": "uint256",
          "name": "",
          "type": "uint256"
        }
      ],
      "name": "tiers",
      "outputs": [
        {
          "internalType": "uint256",
          "name": "",
          "type": "uint256"
        }
      ],
      "stateMutability": "view",
      "type": "function"
    }
  ],
  "bytecode": "0x6080604052336000806101000a81548173ffffffffffffffffffffffffffffffffffffffff021916908373ffffffffffffffffffffffffffffffffffffffff16021790555060006009819055506102bc600c6000601e8152602001908152602001600020819055506103e8600c6000605a8152602001908152602001600020819055506104b0600c600060b4815260200190815260200160002081905550600d601e9080600181540180825580915050600190039060005260206000200160009091909190915055600d605a9080600181540180825580915050600190039060005260206000200160009091909190915055600d60b4908060018154018082558091505060019003906000526020600020016000909190919091505561145b8061012a6000396000f3fe6080604052600436106100dd5760003560e01c806399fbab881161007f578063b838ec8611610059578063b838ec86146102ed578063c7c9d0551461032a578063e4f9084114610353578063e57517581461036f576100dd565b806399fbab8814610257578063a126d6011461029b578063b0f0475b146102c4576100dd565b806340d98a44116100bb57806340d98a441461018757806341ee13be146101c45780634c8f2a78146101ef5780638da5cb5b1461022c576100dd565b8063039af9eb146100e25780630c196a741461011f5780631131c8cd1461015c575b600080fd5b3480156100ee57600080fd5b5061010960048036038101906101049190610d58565b6103ac565b6040516101169190610d94565b60405180910390f35b34801561012b57600080fd5b5061014660048036038101906101419190610d58565b6103c4565b6040516101539190610d94565b60405180910390f35b34801561016857600080fd5b506101716103e1565b60405161017e9190610d94565b60405180910390f35b34801561019357600080fd5b506101ae60048036038101906101a99190610e0d565b6103e7565b6040516101bb9190610ef8565b60405180910390f35b3480156101d057600080fd5b506101d961047e565b6040516101e69190610ef8565b60405180910390f35b3480156101fb57600080fd5b5061021660048036038101906102119190610d58565b6104d6565b6040516102239190610d94565b60405180910390f35b34801561023857600080fd5b506102416104fa565b60405161024e9190610f29565b60405180910390f35b34801561026357600080fd5b5061027e60048036038101906102799190610d58565b61051e565b604051610292989796959493929190610f5f565b60405180910390f35b3480156102a757600080fd5b506102c260048036038101906102bd9190610d58565b610593565b005b3480156102d057600080fd5b506102eb60048036038101906102e69190610fdd565b6107d1565b005b3480156102f957600080fd5b50610314600480360381019061030f9190610d58565b6108a4565b60405161032191906110dd565b60405180910390f35b34801561033657600080fd5b50610351600480360381019061034c9190610fdd565b61097f565b005b61036d60048036038101906103689190610d58565b610a2c565b005b34801561037b57600080fd5b50610396600480360381019061039191906110f9565b610c60565b6040516103a39190610d94565b60405180910390f35b600c6020528060005260406000206000915090505481565b6000600c6000838152602001908152602001600020549050919050565b60095481565b6060600b60008373ffffffffffffffffffffffffffffffffffffffff1673ffffffffffffffffffffffffffffffffffffffff16815260200190815260200160002080548060200260200160405190810160405280929190818152602001828054801561047257602002820191906000526020600020905b81548152602001906001019080831161045e575b50505050509050919050565b6060600d8054806020026020016040519081016040528092919081815260200182805480156104cc57602002820191906000526020600020905b8154815260200190600101908083116104b8575b5050505050905090565b600d81815481106104e657600080fd5b906000526020600020016000915090505481565b60008054906101000a900473ffffffffffffffffffffffffffffffffffffffff1681565b600a6020528060005260406000206000915090508060000154908060010160009054906101000a900473ffffffffffffffffffffffffffffffffffffffff16908060020154908060030154908060040154908060050154908060060154908060070160009054906101000a900460ff16905088565b3373ffffffffffffffffffffffffffffffffffffffff16600a600083815260200190815260200160002060010160009054906101000a900473ffffffffffffffffffffffffffffffffffffffff1673ffffffffffffffffffffffffffffffffffffffff1614610637576040517f08c379a000000000000000000000000000000000000000000000000000000000815260040161062e90611196565b60405180910390fd5b600a600082815260200190815260200160002060070160009054906101000a900460ff1661069a576040517f08c379a000000000000000000000000000000000000000000000000000000000815260040161069190611202565b60405180910390fd5b6000600a600083815260200190815260200160002060070160006101000a81548160ff021916908315150217905550600a600082815260200190815260200160002060030154421115610770576000600a600083815260200190815260200160002060060154600a6000848152602001908152602001600020600501546107219190611251565b90503373ffffffffffffffffffffffffffffffffffffffff166108fc829081150290604051600060405180830381858888f19350505050158015610769573d6000803e3d6000fd5b50506107ce565b3373ffffffffffffffffffffffffffffffffffffffff166108fc600a6000848152602001908152602001600020600501549081150290604051600060405180830381858888f193505050501580156107cc573d6000803e3d6000fd5b505b50565b3373ffffffffffffffffffffffffffffffffffffffff1660008054906101000a900473ffffffffffffffffffffffffffffffffffffffff1673ffffffffffffffffffffffffffffffffffffffff161461085f576040517f08c379a0000000000000000000000000000000000000000000000000000000008152600401610856906112f7565b60405180910390fd5b80600c600084815260200190815260200160002081905550600d8290806001815401808255809150506001900390600052602060002001600090919091909150555050565b6108ac610cc0565b600a600083815260200190815260200160002060405180610100016040529081600082015481526020016001820160009054906101000a900473ffffffffffffffffffffffffffffffffffffffff1673ffffffffffffffffffffffffffffffffffffffff1673ffffffffffffffffffffffffffffffffffffffff16815260200160028201548152602001600382015481526020016004820154815260200160058201548152602001600682015481526020016007820160009054906101000a900460ff1615151515815250509050919050565b3373ffffffffffffffffffffffffffffffffffffffff1660008054906101000a900473ffffffffffffffffffffffffffffffffffffffff1673ffffffffffffffffffffffffffffffffffffffff1614610a0d576040517f08c379a0000000000000000000000000000000000000000000000000000000008152600401610a04906112f7565b60405180910390fd5b80600a6000848152602001908152602001600020600301819055505050565b6000600c60008381526020019081526020016000205411610a82576040517f08c379a0000000000000000000000000000000000000000000000000000000008152600401610a7990611363565b60405180910390fd5b60405180610100016040528060095481526020013373ffffffffffffffffffffffffffffffffffffffff1681526020014281526020016201518083610ac79190611383565b42610ad29190611251565b8152602001600c6000848152602001908152602001600020548152602001348152602001610b14600c6000858152602001908152602001600020548434610c91565b815260200160011515815250600a600060095481526020019081526020016000206000820151816000015560208201518160010160006101000a81548173ffffffffffffffffffffffffffffffffffffffff021916908373ffffffffffffffffffffffffffffffffffffffff16021790555060408201518160020155606082015181600301556080820151816004015560a0820151816005015560c0820151816006015560e08201518160070160006101000a81548160ff021916908315150217905550905050600b60003373ffffffffffffffffffffffffffffffffffffffff1673ffffffffffffffffffffffffffffffffffffffff1681526020019081526020016000206009549080600181540180825580915050600190039060005260206000200160009091909190915055600160096000828254610c569190611251565b9250508190555050565b600b6020528160005260406000208181548110610c7c57600080fd5b90600052602060002001600091509150505481565b6000612710828486610ca39190611383565b610cad9190611383565b610cb791906113f4565b90509392505050565b60405180610100016040528060008152602001600073ffffffffffffffffffffffffffffffffffffffff16815260200160008152602001600081526020016000815260200160008152602001600081526020016000151581525090565b600080fd5b6000819050919050565b610d3581610d22565b8114610d4057600080fd5b50565b600081359050610d5281610d2c565b92915050565b600060208284031215610d6e57610d6d610d1d565b5b6000610d7c84828501610d43565b91505092915050565b610d8e81610d22565b82525050565b6000602082019050610da96000830184610d85565b92915050565b600073ffffffffffffffffffffffffffffffffffffffff82169050919050565b6000610dda82610daf565b9050919050565b610dea81610dcf565b8114610df557600080fd5b50565b600081359050610e0781610de1565b92915050565b600060208284031215610e2357610e22610d1d565b5b6000610e3184828501610df8565b91505092915050565b600081519050919050565b600082825260208201905092915050565b6000819050602082019050919050565b610e6f81610d22565b82525050565b6000610e818383610e66565b60208301905092915050565b6000602082019050919050565b6000610ea582610e3a565b610eaf8185610e45565b9350610eba83610e56565b8060005b83811015610eeb578151610ed28882610e75565b9750610edd83610e8d565b925050600181019050610ebe565b5085935050505092915050565b60006020820190508181036000830152610f128184610e9a565b905092915050565b610f2381610dcf565b82525050565b6000602082019050610f3e6000830184610f1a565b92915050565b60008115159050919050565b610f5981610f44565b82525050565b600061010082019050610f75600083018b610d85565b610f82602083018a610f1a565b610f8f6040830189610d85565b610f9c6060830188610d85565b610fa96080830187610d85565b610fb660a0830186610d85565b610fc360c0830185610d85565b610fd060e0830184610f50565b9998505050505050505050565b60008060408385031215610ff457610ff3610d1d565b5b600061100285828601610d43565b925050602061101385828601610d43565b9150509250929050565b61102681610dcf565b82525050565b61103581610f44565b82525050565b610100820160008201516110526000850182610e66565b506020820151611065602085018261101d565b5060408201516110786040850182610e66565b50606082015161108b6060850182610e66565b50608082015161109e6080850182610e66565b5060a08201516110b160a0850182610e66565b5060c08201516110c460c0850182610e66565b5060e08201516110d760e085018261102c565b50505050565b6000610100820190506110f3600083018461103b565b92915050565b600080604083850312156111105761110f610d1d565b5b600061111e85828601610df8565b925050602061112f85828601610d43565b9150509250929050565b600082825260208201905092915050565b7f4f6e6c79206f776e65722063616e20636c6f736520706f736974696f6e000000600082015250565b6000611180601d83611139565b915061118b8261114a565b602082019050919050565b600060208201905081810360008301526111af81611173565b9050919050565b7f506f736974696f6e20697320616c726561647920636c6f736564000000000000600082015250565b60006111ec601a83611139565b91506111f7826111b6565b602082019050919050565b6000602082019050818103600083015261121b816111df565b9050919050565b7f4e487b7100000000000000000000000000000000000000000000000000000000600052601160045260246000fd5b600061125c82610d22565b915061126783610d22565b925082820190508082111561127f5761127e611222565b5b92915050565b7f4f6e6c79206f776e65722063616e206d6f64696679206c6f636b20706572696f60008201527f6473000000000000000000000000000000000000000000000000000000000000602082015250565b60006112e1602283611139565b91506112ec82611285565b604082019050919050565b60006020820190508181036000830152611310816112d4565b9050919050565b7f496e76616c6964206c6f636b20706572696f6400000000000000000000000000600082015250565b600061134d601383611139565b915061135882611317565b602082019050919050565b6000602082019050818103600083015261137c81611340565b9050919050565b600061138e82610d22565b915061139983610d22565b92508282026113a781610d22565b915082820484148315176113be576113bd611222565b5b5092915050565b7f4e487b7100000000000000000000000000000000000000000000000000000000600052601260045260246000fd5b60006113ff82610d22565b915061140a83610d22565b92508261141a576114196113c5565b5b82820490509291505056fea264697066735822122097e488c6cb0283290e7a40c9137ad239ad0a33b617f7b78dfada48c17296d75b64736f6c63430008110033",
  "linkReferences": {},
  "deployedLinkReferences": {}
}